:100000000C9446000C945D000C945D000C945D0013
:100010000C945D000C945D000C945D000C945D00EC
:100020000C945D000C945D000C945D000C945D00DC
:100030000C945D000C945D000C945D000C945D00CC
:100040000C945D000C945D000C945D000C945D00BC
:100050000C945D000C945D000C945D000C945D00AC
:100060000C945D000C945D000C945D000C945D009C
:100070000C945D000C945D000C945D000C945D008C
:100080000C945D000C945D000C945D0011241FBE67
:10009000CFEFD0E4DEBFCDBF11E0A0E0B1E0EAEEEB
:1000A000F1E000E00BBF02C007900D92AE30B10747
:1000B000D9F70E9488000C94F3000C940000CF93B1
:1000C000DF9300D01F92CDB7DEB789837B836A832D
:1000D00089818A3031F48A819B81BC018DE00E9444
:1000E0005F0080EC90E0FC018081882F90E08072BE
:1000F0009927892BB1F386EC90E02981FC012083BC
:1001000080E090E00F900F900F90DF91CF910895D5
:10011000CF93DF93CDB7DEB727970FB6F894DEBF46
:100120000FBECDBF81E290E0FC01108282E290E040
:100130002FEFFC01208384E290E0FC01108285E235
:1001400090E02FEFFC01208387E290E02FEFFC018D
:10015000208388E290E0FC01108219821A821B82BF
:1001600080E290E0FC018081898383E290E0FC01E1
:1001700080818A831D821C8212C08981882F90E031
:1001800081709927892B19F08B818F5F8B838981EF
:10019000869589838C819D8101969D838C838C813A
:1001A0009D81089754F31F821E8212C08A81882F76
:1001B00090E081709927892B19F08B818F5F8B8359
:1001C0008A8186958A838E819F8101969F838E8303
:1001D0008E819F81089754F388E290E02B81FC0187
:0A01E00020831B82BDCFF894FFCFEF
:0E01EA0000000002000000005F0000000000A6
:00000001FF
