:100000000C9446000C945D000C945D000C945D0013
:100010000C945D000C945D000C945D000C945D00EC
:100020000C945D000C945D000C945D000C945D00DC
:100030000C945D000C945D000C945D000C945D00CC
:100040000C945D000C945D000C945D000C945D00BC
:100050000C945D000C945D000C945D000C945D00AC
:100060000C945D000C945D000C945D000C945D009C
:100070000C945D000C945D000C945D000C945D008C
:100080000C945D000C945D000C945D0011241FBE67
:10009000CFEFD0E4DEBFCDBF11E0A0E0B1E0E6ECF1
:1000A000F1E000E00BBF02C007900D92AE30B10747
:1000B000D9F70E9488000C94E1000C940000CF93C3
:1000C000DF9300D01F92CDB7DEB789837B836A832D
:1000D00089818A3031F48A819B81BC018DE00E9444
:1000E0005F0080EC90E0FC018081882F90E08072BE
:1000F0009927892BB1F386EC90E02981FC012083BC
:1001000080E090E00F900F900F90DF91CF910895D5
:10011000CF93DF9300D01F92CDB7DEB781E290E09E
:10012000FC01108282E290E02FEFFC01208387E245
:1001300090E02FEFFC01208388E290E0FC01108228
:100140001A8219821B8280E290E0FC0180818F700C
:100150008A838A81882319F480E4898320C08A8174
:10016000833018F480E689831AC08A81853018F4B8
:1001700080E7898314C08A81873018F488E38983F3
:100180000EC08A818A3018F48CE3898308C08A8182
:100190008D3018F48EE3898302C08FE3898380E277
:1001A00090E0FC01808180778B838B81803319F410
:1001B00089818068898388E290E02981FC0120831D
:0601C000C2CFF894FFCF4E
:0E01C60000000002000000005F0000000000CA
:00000001FF
