:100000000C9446000C945D000C945D000C945D0013
:100010000C945D000C945D000C945D000C945D00EC
:100020000C945D000C945D000C945D000C945D00DC
:100030000C945D000C945D000C945D000C945D00CC
:100040000C945D000C945D000C945D000C945D00BC
:100050000C945D000C945D000C945D000C945D00AC
:100060000C945D000C945D000C945D000C945D009C
:100070000C945D000C945D000C945D000C945D008C
:100080000C945D000C945D000C945D0011241FBE67
:10009000CFEFD0E4DEBFCDBF11E0A0E0B1E0ECEAED
:1000A000F1E000E00BBF02C007900D92AE30B10747
:1000B000D9F70E9488000C94D4000C940000CF93D0
:1000C000DF9300D01F92CDB7DEB789837B836A832D
:1000D00089818A3031F48A819B81BC018DE00E9444
:1000E0005F0080EC90E0FC018081882F90E08072BE
:1000F0009927892BB1F386EC90E02981FC012083BC
:1001000080E090E00F900F900F90DF91CF910895D5
:10011000CF93DF9300D000D0CDB7DEB784E290E07C
:100120002EEFFC01208385E290E021E0FC0120839A
:100130008AE290E0FC0110828BE290E02FEFFC015C
:10014000208319821A821C821B8283E290E0FC01C8
:10015000808181708A8389E290E0FC018081882F10
:1001600090E0880F991F9C838B838A81882F90E071
:100170002B813C81822B932B9C838B838B819C8155
:10018000069710F419820AC08B819C8186349105F0
:1001900018F484E0898302C082E0898385E290E0DC
:0C01A0002981FC012083D1CFF894FFCF0F
:0E01AC0000000002000000005F0000000000E4
:00000001FF
